:100000000C94F8020C9420030C9420030C9420030D
:100010000C9420030C9420030C9420030C942003D4
:100020000C9420030C9420030C9420030C942003C4
:100030000C9420030C9420030C9420030C942003B4
:100040000C948D220C9420030C945B220C9435228A
:100050000C9420030C9420030C9420030C94200394
:100060000C9420030C9420030000000024002700BF
:100070002A004602000000FF0800053E5B4F5B3E81
:10008000053E6B4F6B3E051C3E7C3E1C05183C7EBE
:100090003C18051C577D571C051C5E7F5E1C040028
:1000A000183C1805FFE7C3E7FF040018241805FFF4
:1000B000E7DBE7FF0530483A060E052629792926B1
:1000C00005407F05050705407F05253F055A3CE7AC
:1000D0003C5A057F3E1C1C0805081C1C3E7F05146D
:1000E000227F221405FFFFFFFFFF05F0F0F0F0F084
:1000F00003FFFFFF05000000FFFF050F0F0F0F0FAD
:100100000508047E04080510207E20100508082A32
:100110001C0805081C2A080805AA005500AA05AAFB
:1001200055AA55AA0530383E383005060E3E0E0653
:10013000020000015F0307000705147F147F140508
:10014000444AFF4A32056313086463053649493659
:10015000480107033E41410341413E05082A1C2A4C
:10016000080508083E08080260E0040808080802BC
:100170006060056010080403053E5149453E034296
:100180007F40057149494946054149494936050FAE
:100190000808087F054F49494931053E494949301A
:1001A00005030101017F05364949493605064949DC
:1001B000493E026C6C026CEC030814220414141403
:1001C0001403221408050159090906053E415D5929
:1001D0004E057E0909097E057F49494936053E419C
:1001E000414141057F4141413E057F494949410522
:1001F0007F09090901053E41414979057F08080841
:100200007F03417F4105304141413F057F08142272
:1002100041057F40404040057F020C027F057F047E
:1002200008107F053E4141413E057F090909060549
:100230003E4141617E057F091929460546494949E4
:10024000310501017F0101053F4040403F051F206E
:1002500040201F053F4038403F05631408146305E4
:100260000304780403056151494543037F41410577
:1002700003040810600341417F05040201020404E5
:100280008080808003010204043844447C047F445D
:1002900044380438444444043844447F04385454B3
:1002A0005804047E05010418A4A47C047F04047887
:1002B000017D0384857C047F102844017F057C0434
:1002C000780478047C040478043844443804FC241A
:1002D000241804182424FC047C04040804585454EE
:1002E0003403047F04043C40407C041C20407C0513
:1002F0003C4030403C046C10106C041CA0A07C04FA
:100300006454544C0408364141017F04414136088D
:100310000402010201057F4141417F053E555555CB
:1003200041053844443844057C2A2A3E14057E029F
:1003300002060605027E027E0205635549416305F9
:100340003844443C0405407E201E200506027E02FF
:1003500002086313086463006060052A2A2A2A2AB7
:1003600003514A4403444A51050000FF010303E0DE
:1003700080FF0536123624360302050202181802E1
:100380001010053040FF0101041F01011E00000094
:10039000000901017F017F020C027F0000000000C4
:1003A000000100017D0418247E2404447E4541059B
:1003B000221C141C2205012A7C2A010177044E55B7
:1003C000553903020002077E81BDA5A5817E032663
:1003D000292F0508142A14220408080818030808FD
:1003E00008077E81BD95A9817E05010101010103F8
:1003F00002050203242E24031915120315150A02FF
:10040000020104F82040780506097F017F021818D0
:10041000040080A0C003121F100326292605221401
:100420002A140808402F1008041E117C08402F10C1
:10043000080462554C0915553F1008041E117C052F
:100440003048484D4005781516147805781416156F
:1004500078057A1514157A05781615167905781524
:10046000141578057814151478077E09097F494911
:1004700041059EA1612121057C54554644057C54CB
:10048000564544057E55544546057C555445440320
:10049000457E4403447E4503467D4603457C450531
:1004A000087F49413E057C0A11227D0538444546B6
:1004B00038053844464538053A4544453A053846F6
:1004C00045463905384544453805221408142205A7
:1004D0007C625A463E053C4041423C053C4042411C
:1004E0003C053C4241423C053C4140413C05020444
:1004F0007A0502043F12120C057E49494E30043839
:1005000045467C043844467D043846457E043A45D9
:10051000467D043845447D04304A4D7A07205454C2
:1005200038545458049CA262220438555658043852
:10053000545659043856555A043855545902017ABC
:10054000027A01030279020302780204304B4B3C29
:10055000047A090A710430494A300430484A3104A7
:10056000304A49320432494A310439444439050891
:10057000082A08080438544C3804384142780438B2
:10058000404279043842417A043A40407A0418A043
:10059000A27904FC282810041AA0A07A0000000008
:1005A00023002600290000000008000201000003CB
:1005B00004070000000000000000010204081020F1
:1005C00040800102040810200102040810200000ED
:1005D0000000250028002B00040404040404040483
:1005E000020202020202030303030303D7220228CA
:1005F00011241FBECFEFD8E0DEBFCDBF11E0A0E0D9
:10060000B1E0EEECF7E502C005900D92A833B1071A
:10061000D9F722E0A8E3B1E001C01D92A834B207E7
:10062000E1F712E0C7EFD2E004C02197FE010E947B
:10063000DB29C63FD107C9F70E94D0230C94DA2BDF
:100640000C940000829590E09C0135952795359596
:1006500027952373880F991F880F991F8C7C282B4F
:1006600030E0C901959587958575220F331F2A7A49
:10067000822B0895CF93DF93262F2695382F70E095
:10068000680F791FFC018E2F831B821750F4819114
:1006900061507109DB019C91EF01219798838C9344
:1006A000F2CFDF91CF910895482FFC018E2F841B4C
:1006B0008617E0F4219130E0C901959587958575FD
:1006C000220F331F2A7A822B90E09C0135952795C3
:1006D000359527952373880F991F880F991F8C7C58
:1006E000822B8295DF0111978C93E0CF0895AF9212
:1006F000BF92CF92DF92EF92FF920F931F93CF930F
:10070000DF936C017B018B01040F151FEB015E0170
:10071000AE18BF08C017D10759F06991D601ED9105
:10072000FC910190F081E02DC6010995892B79F7A4
:10073000C501DF91CF911F910F91FF90EF90DF9056
:10074000CF90BF90AF900895FC01538D448D252F1D
:1007500030E0842F90E0821B930B541710F0CF965B
:10076000089501970895FC01918D828D981761F08D
:10077000A28DAE0FBF2FB11D5D968C91928D9F5FA4
:100780009F73928F90E008958FEF9FEF0895FC0183
:10079000918D828D981731F0828DE80FF11D858D36
:1007A00090E008958FEF9FEF0895FC01918D228DC9
:1007B000892F90E0805C9F4F821B91098F7399274E
:1007C00008958AE591E00E94D50321E0892B09F480
:1007D00020E0822F089580E090E0892B29F00E948C
:1007E000E10381110C9400000895FC01A48DA80F71
:1007F000B92FB11DA35ABF4F2C91848D90E0019663
:100800008F739927848FA689B7892C93A089B18982
:100810008C91837080648C93938D848D981306C023
:100820000288F389E02D80818F7D80830895EF9287
:10083000FF920F931F93CF93DF93EC0181E0888F9A
:100840009B8D8C8D98131AC0E889F989808185FF6A
:1008500015C09FB7F894EE89FF896083E889F9890C
:1008600080818370806480839FBF81E090E0DF910E
:10087000CF911F910F91FF90EF900895F62E0B8D61
:1008800010E00F5F1F4F0F731127E02E8C8D8E111C
:100890000CC00FB607FCFACFE889F989808185FF83
:1008A000F5CFCE010E94F503F1CFEB8DEC0FFD2FBC
:1008B000F11DE35AFF4FF0829FB7F8940B8FEA893E
:1008C000FB8980818062CFCFCF93DF93EC01888D4D
:1008D0008823B9F0AA89BB89E889F9898C9185FDBB
:1008E00003C0808186FD0DC00FB607FCF7CF8C9149
:1008F00085FFF2CF808185FFEDCFCE010E94F50309
:10090000E9CFDF91CF910895833081F028F48130D1
:1009100099F08230A9F008958730A9F08830C9F0A5
:100920008430B1F4809180008F7D03C0809180007D
:100930008F7780938000089584B58F7784BD089564
:1009400084B58F7DFBCF8091B0008F778093B0000E
:1009500008958091B0008F7DF9CF1F93CF93DF93DF
:10096000282F30E0F901EA55FA4F8491F901E65455
:10097000FA4FD491F901E852FA4FC491CC23A9F06F
:10098000162F81110E948404EC2FF0E0EE0FFF1F60
:10099000E253FA4FA591B4918FB7F894EC911111ED
:1009A00008C0D095DE23DC938FBFDF91CF911F91DC
:1009B0000895DE2BF8CFCF93DF9390E0FC01E6544F
:1009C000FA4F249188529A4FFC0184918823D1F0E8
:1009D00090E0880F991FFC01E859FF4FA591B49151
:1009E000FC01E253FA4FC591D49161110EC09FB73B
:1009F000F8948C91E22FE0958E238C932881E2234A
:100A0000E8839FBFDF91CF9108958FB7F894EC9161
:100A1000E22BEC938FBFF6CF3FB7F89480914A0159
:100A200090914B01A0914C01B0914D0126B5A89B2E
:100A300005C02F3F19F00196A11DB11D3FBFBA2F70
:100A4000A92F982F8827BC01CD01620F711D811D30
:100A5000911D42E0660F771F881F991F4A95D1F7B5
:100A600008950F931F93CF93DF93CDB7DEB72997E8
:100A70000FB6F894DEBF0FBECDBF809110029091EB
:100A80001102892B09F467C00E940C05009116021F
:100A9000109117022091180230911902601B710BFE
:100AA000820B930B6C3271408105910568F3F894C9
:100AB00080910B0290910C029A838983E09110023D
:100AC000F0911102DF0111968081898790910702D0
:100AD000E0911A02F0911B0280911C02992309F403
:100AE00045C09081982B98879081809589238F832A
:100AF0008F818C8388E08B8358856F8149853B810A
:100B00002C8189819A81508347FD252F3A95208336
:100B1000262F39F0441F00C000006083000000C091
:100B2000F2CF38E04D9160830000019761F7F093B8
:100B30001B02E0931A0249873B832C839A838983A3
:100B400078940E940C0560931602709317028093AC
:100B500018029093190229960FB6F894DEBF0FBEC3
:100B6000CDBFDF91CF911F910F9108959081982B68
:100B700098879081809589238F838F818E8388E0E9
:100B80008D8358856F8149853D812E8189819A8128
:100B9000508347FD252F00C000C0208300C000C047
:100BA00000C000C000C060830000262F3A9541F0CD
:100BB000441F000000C000C000C000C000C0E8CF5B
:100BC00038E04D9100C0608300C0019709F7F093B1
:100BD0001B02E0931A0249873D832E83AFCF8F9289
:100BE0009F92AF92BF92CF92DF92EF92FF924B0112
:100BF0005C010E940C056B017C010E940C056C19C4
:100C00007D098E099F09683E734081059105A8F30F
:100C100021E0821A9108A108B10888EEC80E83E08D
:100C2000D81EE11CF11C81149104A104B10429F720
:100C3000FF90EF90DF90CF90BF90AF909F908F90FC
:100C400008952FB7F8946091460170914701809103
:100C50004801909149012FBF0895CF92DF92EF9202
:100C6000FF921F93CF93DF93DC0156961C92569709
:100C700088E057968C93579758961C9258975A9697
:100C80001C921E9259978FEF90E05C969C938E93E6
:100C90005B975E961C921E925D9754968D919C91E7
:100CA0005597009709F478C0FC012491263409F087
:100CB00031C03196E491E13009F453C022E030E0D4
:100CC000E23021F5FC01329624913196E49130E036
:100CD000322F22272E0F311D5A963C932E9359976F
:100CE000FC01349624913196E49130E0322F222792
:100CF0002E0F311D5C963C932E935B97FC0136962C
:100D0000E4915796EC93579727E030E05E963C933A
:100D10002E935D975D96CD90DC905E97F12CE12C43
:100D200059962D913C915A975B96CD91DC915C97A9
:100D300010E0C217D30770F1FC01EC0DFD1D4491CA
:100D4000141708F4142F50E070E060E04F5F5F4F1D
:100D50006F4F7F4FC40ED51EE61EF71E2F5F3F4F0D
:100D6000E8CFFC013296E491F0E05A96FC93EE93C2
:100D70005997FC013396E491F0E05C96FC93EE9376
:100D80005B97FC013496E4915796EC93579725E0D6
:100D900030E0BCCF58961C93DF91CF911F91FF900C
:100DA000EF90DF90CF900895FC018185681738F5AA
:100DB0002285338579E0679F200D311D11248481C0
:100DC00050E09381992371F0882331F087E090E01F
:100DD000FC01E41BF50BAF01240F351FF9018081E5
:100DE0000C942203882331F087E090E0BC01641B5F
:100DF000750BAB01240F351FF9018081089580E048
:100E000008958F929F92AF92BF92CF92DF92EF920E
:100E1000FF92CF93DF93FC01242F30E0838188235E
:100E200009F447C087E090E0821B930B91E001C07A
:100E3000990F8A95EAF78185681708F040C02285E6
:100E40003385A90189E0689F400D511D1124BA0125
:100E5000E48130E020E080E0A7E0B0E0C12CD12CBC
:100E60007601C394F22FAD01421B530BE11101C077
:100E7000A901460F571FEA014881492351F0460155
:100E8000570104C0880C991CAA1CBB1CFA95D2F708
:100E900088292F5F3F4F2830310521F7DF91CF910F
:100EA000FF90EF90DF90CF90BF90AF909F908F908A
:100EB000089591E001C0990F4A95EAF7BCCF80E010
:100EC000EDCFFC01228121110C9401070C94D40672
:100ED000462F47706695669566950C946107CF938B
:100EE000DF9300D0CDB7DEB769831A82DC01ED91C4
:100EF000FC910084F185E02DBE016F5F7F4F099565
:100F000081E090E00F900F90DF91CF9108950895C8
:100F100090E080E00895FC01828D968DA4A5B5A592
:100F200091FD15C0882381F0868997890597A9F4DA
:100F300081E022A533A52A173B0709F080E086A7A8
:100F40001197B5A7A4A70895808D918DEFCF882321
:100F500079F086899789059759F7CD01019695A76C
:100F600084A781E011969C91911180E086A7089555
:100F7000808D918DF0CFFC01848995898230910517
:100F800091F42189328934A323A337A326A3823085
:100F9000910561F42785308931A720A7029749F090
:100FA0008FEF85A3089527853089EDCF2189328978
:100FB000F3CF81E0F6CFCF92DF92EF92FF920F93C3
:100FC0001F93CF93DF93EC0188858823A1F0809154
:100FD0004401882361F08FB7F894909144019130D7
:100FE00041F59DB3909343019DB39DBB8FBF80E5B9
:100FF0008CBD81E08DBD60E08F810E94AD0488854D
:101000008823D1F030E020E0898590E0880F991F97
:1010100028173907C8F5EC85FD85E20FF31F80819D
:101020008EBD00000DB407FEFDCF8EB52F5F3F4F84
:10103000EBCF80934301DBCF10E000E0898590E0A7
:10104000880F991F08171907F8F4EC85FD85E00F44
:10105000F11FE080DE80CD8088E0F82E6E2D661FC7
:101060006627661F8C2D0E94AD04EE0C61E08D2D6D
:101070000E94AD0460E08D2D0E94AD04FA94F11041
:10108000EDCF0F5F1F4FDACF61E08F810E94AD047B
:101090008885882371F080914401882351F09FB79F
:1010A000F8942091440180914301213059F48DBB83
:1010B0009FBFDF91CF911F910F91FF90EF90DF9035
:1010C000CF9008958FBFF5CF1F93CF93DF93EC019F
:1010D000A881B98158961C918CA9180F89A98117EC
:1010E00068F48AA99BA9009711F00E947D2A19AB88
:1010F000812F90E00E94E1299BAB8AABDF91CF91D9
:101100001F910895FC01418550E0440F551F70E088
:1011100060E0848595850C94CC2BBF92CF92DF92B2
:10112000EF92FF920F931F93CF93DF93FC012185E2
:10113000621708F04EC0EC01F9E06F9F70011124B6
:10114000D12CC12C062F10E0BB24B394BC0CEA8533
:10115000FB85EE0DFF1D808590E00C2C02C095955F
:1011600087950A94E2F780FF27C0CE010E9482088B
:1011700089858150990B801B910B880F991F2C85B5
:101180003D85820F931FFC01B082EA85FB85EE0D41
:10119000FF1DEC0DFD1D408189858150990B801B41
:1011A000910B880F991F2C853D85820F931FFC01A1
:1011B0004183CE010E94DB07FFEFCF1ADF0A88E0F0
:1011C000C816D10409F68A859B85E80EF91EF70139
:1011D0001086DF91CF911F910F91FF90EF90DF90DC
:1011E000CF90BF9008950F931F93CF93DF93EC019F
:1011F000162F042F822F9B8191110E94220399E0C8
:10120000199F90011124AA85BB85A20FB31F602FDF
:1012100070E09C8147E050E0461B570B911101C0E4
:10122000AB01A40FB51F8C93EA85FB85E20FF31F7A
:1012300020858C818823F1F047E050E0461B570B56
:1012400081E090E0A0E0B0E004C0880F991FAA1FE1
:10125000BB1F4A95D2F7822B80878A89882321F089
:10126000612FCE010E948D0881E0DF91CF911F9107
:101270000F91089581E090E0A0E0B0E004C0880FF5
:10128000991FAA1FBB1F0A95D2F7E5CF9F92AF9275
:10129000BF92CF92DF92EF92FF920F931F93CF9363
:1012A000DF93FC0189E0689FE001112481E090E078
:1012B000A0E0B0E06C017D01042E04C0CC0CDD1C6C
:1012C000EE1CFF1C0A94D2F7BC2C7C2D709507E015
:1012D00010E0041B110904C0880F991FAA1FBB1F2F
:1012E0000A95D2F7A82E382F309590E080E0022F93
:1012F00010E027E0E22EF12CAC01A285B385AC0F03
:10130000BD1F248193806801082E02C0D594C79424
:101310000A94E2F7C0FE2AC0222319F0A701481B55
:10132000590BA40FB51F2C914B2D91104A2D242B36
:101330002C93019688309105F9F682859385C80F24
:10134000D91F8FEF88878289882319F0CF010E94E7
:101350008D0881E0DF91CF911F910F91FF90EF9069
:10136000DF90CF90BF90AF909F900895222319F007
:10137000A701481B590BA40FB51F2C91472F9110A3
:10138000432F2423D5CFFC0152813185552321F0F1
:10139000631730F40C944609631710F40C94F308A7
:1013A00080E00895242F462F477033E076956795A7
:1013B0003A95E1F70C94C309FC015281318555231C
:1013C00031F0631750F4483041F00C94F308631780
:1013D00020F4483011F00C94460980E00895CF9233
:1013E000DF92EF92FF920F931F93CF93DF93FC0155
:1013F000722F82815185882309F45DC0651708F03A
:10140000BEC0283009F4BBC009E0609F7001112400
:10141000828593858E0D9F1D50E0A22FB0E0248120
:101420002223B9F127E030E0E901C41BD50BAE015E
:101430002A1B3B0B480F591FEA014881820F931F5B
:10144000EC01488382859385E701C80FD91F288561
:101450008481882301F147E050E04A1B5B0B81E067
:1014600090E0A0E0B0E004C0880F991FAA1FBB1F46
:101470004A95D2F7822B88878289811118C081E032
:10148000DF91CF911F910F91FF90EF90DF90CF9060
:1014900008959D01CFCF81E090E0A0E0B0E004C0CE
:1014A000880F991FAA1FBB1F7A95D2F7E3CFCF01F0
:1014B0000E948D08E4CFA42FB0E09381992309F412
:1014C0004FC027E030E02A1B3B0B91E001C0990F91
:1014D0002A95EAF76517A0F6783091F2D9E06D9F6A
:1014E000A001112401E010E020E030E06801790162
:1014F000072E04C0CC0CDD1CEE1CFF1C0A94D2F796
:10150000DC2DCC2DC095A7E0B0E0A71BB10904C02D
:10151000000F111F221F331FAA95D2F7F02E00953E
:1015200030E020E0A285B385A40FB51FA20FB31F42
:101530008C917381182F1923D9F0711117C07D2F49
:10154000872B8C932F5F3F4F2830310559F78285C9
:101550009385480F591F8FEFDA0118968C938CCF23
:1015600091E001C0990F4A95EAF7B4CF7F2DE8CFFB
:10157000711103C07C2F8723E4CF702FFCCF80E054
:101580007FCF8F929F92AF92BF92CF92DF92FF92C6
:101590000F931F93CF93DF93CDB7DEB728970FB686
:1015A000F894DEBF0FBECDBF4830510508F0CBC167
:1015B000FA01F62E8C01E152F54F0C94DB29E70A73
:1015C000380B6F0BA90BE40B290C6D0C8D0C29E06B
:1015D000629FA0011124DC0112968C918823C9F12D
:1015E00030E020E0D8011A96ED91FC911B97E40FB2
:1015F000F51FE20FF31F808113969C91992339F117
:1016000090E09595879580832F5F3F4F2830310577
:1016100049F7D8011A96ED91FC91B9E0FB9EE00DD7
:10162000F11D11248FEF808781E028960FB6F89482
:10163000DEBF0FBECDBFDF91CF911F910F91FF9005
:10164000DF90CF90BF90AF909F908F900895880FBC
:10165000DACF87E090E0D8011A96ED91FC91E40F83
:10166000F51FE80FF91F208121830197A0F7D1CF43
:10167000E9E06E9F90011124DC0112968C91882381
:10168000E1F050E040E0D8011A96ED91FC911B97F3
:10169000E20FF31FE40FF51F808113969C919923AD
:1016A00041F0880F80834F5F5F4F4830510559F7F5
:1016B000B0CF90E095958795F5CF81E090E0D80187
:1016C0001A96ED91FC91E20FF31FE80FF91F40818C
:1016D0003197408301968830910589F79ACFFC01B4
:1016E000D28083898823F9F040E0C801DD20C1F071
:1016F0000E94D4068983DD20C1F020E0DD24D3944C
:10170000D20E4D2D6F2DC8010E94EF092D2D2730CF
:10171000A9F7298147E06F2DC8010E94DC0979CF24
:101720000E940107E7CF1982E6CFF9E0FF9EA001F2
:10173000112487E090E0D8011A96ED91FC91E40F16
:10174000F51FE80FF91F2081220F2083019798F7DA
:10175000E0CFFC01D28083898823D9F047E0C8011B
:10176000DD20A1F00E94D4068983DD20A1F028E0CD
:10177000DD24DA94D20E4D2D6F2DC8010E94EF09A1
:101780002D2DD110F5CF298140E0C5CF0E94010752
:10179000EBCF1982EACFF9E0FF9EA001112430E0DF
:1017A00020E0D8011A96ED91FC91E40FF51FE20FAD
:1017B000F31F808190E09595879580832F5F3F4F41
:1017C0002830310571F7DFCFB9E06B9F600111243C
:1017D000FC0182818823C1F0912C812CD8011A96BA
:1017E000AD90BC90AC0CBD1CA80CB91CF50180815F
:1017F0000E942203D5018C93BFEF8B1A9B0AE8E06D
:101800008E16910459F705CF30E020E047E050E014
:10181000D8011A968D919C918C0D9D1DFC01E20FB3
:10182000F31FB080BA01621B730B860F971FDC0198
:101830008C918083D8011A96ED91FC91EC0DFD1DE1
:10184000E60FF71FB0822F5F3F4F2430310501F7BD
:10185000E0CEB9E06B9F40011124FC018281882316
:1018600029F130E020E047E050E0D8011A968D9150
:101870009C91880D991DFC01E20FF31FD080BA01E5
:10188000621B730B860F971FDC018C918083D8013C
:101890001A96ED91FC91E80DF91DE60FF71FD08225
:1018A0002F5F3F4F2430310501F7B3CEB12CA12C6F
:1018B000F801C284D384C80CD91CCA0CDB1CD60125
:1018C0008C910E942203F6018083FFEFAF1ABF0ABA
:1018D00028E0A216B10461F79CCECE0101965C010E
:1018E0004C0187E0D82E4D2D6F2DC8010E94610755
:1018F000D4018D934D01DA94BFEFDB12F4CFD12CDC
:10190000F50121915F014D2D6F2DC8010E94DC0969
:10191000D394F8E0DF12F4CF7CCE29E0629FA001DF
:10192000112490E080E0D8011A96ED91FC91E40F2B
:10193000F51FE80FF91F208120952083019688303C
:10194000910589F766CE80E070CECF92DF92EF925C
:10195000FF920F931F93CF93DF93EC01DD24D39479
:10196000F12CE12C01E010E0B9E0CB2ECE010E9479
:10197000820898010E2C02C0220F331F0A94E2F74E
:10198000E0E090E08985E81798F5EC9DA00111242E
:10199000AA85BB85A40FB51F18966C9170E06223D1
:1019A0007323672B19F16E2F70E08150990B861B02
:1019B000970B880F991FAC85BD85A80FB91FDC92C6
:1019C000AA85BB85A40FB51FAE0DBF1DFC918985EF
:1019D0008150990B861B970B880F991F4C855D854D
:1019E000840F951FDC011196FC9391E0EF5FCACF45
:1019F000992319F0CE010E94DB07BFEFEB1AFB0A17
:101A0000D39488E0E816F10409F0B0CF80E099E0C3
:101A10002985821748F4EA85FB85899FE00DF11D31
:101A2000112410868F5FF4CFDF91CF911F910F911A
:101A3000FF90EF90DF90CF900895CF93DF93C9E0B0
:101A400078E05FEF4617B0F06C9F90011124FC0125
:101A5000A285B385A20FB31FFD01D72F1192DA958E
:101A6000E9F7DC011A96ED91FC91E20FF31F508724
:101A70006F5FE8CFFC012289222321F0DF91CF9113
:101A80000C94A50CDF91CF9108956F927F928F9265
:101A90009F92AF92BF92CF92DF92EF92FF920F93FD
:101AA0001F93CF93DF93CDB7DEB729970FB6F89486
:101AB000DEBF0FBECDBF8C01E62EF42E59014617B6
:101AC00008F43DC1DC015296DC90529752961C926C
:101AD0002830310508F033C1F901EF58F24F0C946A
:101AE000DB29C40D400E960E960E790D960E960EBD
:101AF000960E642F70E0AE2CB12C4B018A189B0817
:101B000097FE03C0EFEF8E1A9E0A95948794712C6E
:101B100029E0C22E472D50E0481559050CF0FCC0B5
:101B2000F80122853385FA01EA0DFB1DCE9EC00126
:101B3000CF9E900D1124820F931FFC01DE011196A0
:101B40006C2C01900D926A94E1F7FB01E41BF50BFC
:101B5000CE9EA001CF9E500D1124F901E40FF51F78
:101B6000DC018C2D01900D928A95E1F7F801A28598
:101B7000B385A40FB51FFE0131968C2D01900D92F7
:101B80008A95E1F77394C6CFDC0153968C91882334
:101B900041F1642F660F660F660F695FC8010E94EE
:101BA0006807C82EAE2CB12C8F2D0F2C000C990B72
:101BB0008A159B0564F150E040E06F2DC8010E943A
:101BC000C10A99249A949F0C47E0692DC8010E948C
:101BD0006107282F40E06F2DC8010E94C309F92C2E
:101BE000E3CFF801A088B188A114B10471F0642F8B
:101BF000660F660F660F695FC8010E946807482F6D
:101C000070E060E08F2DF5010995C12CCBCFD80194
:101C10001E96ED91FC911F97309749F053968C9149
:101C2000811105C070E060E08E2D0995C82EB501C8
:101C300083E0660F771F8A95E1F74C2DC8010E945B
:101C4000D209D8015296DC92DD2009F47AC0C8018D
:101C50000E94A50C8D2D29960FB6F894DEBF0FBEFD
:101C6000CDBFDF91CF911F910F91FF90EF90DF904B
:101C7000CF90BF90AF909F908F907F906F9008957E
:101C8000FC0183898823A9F1660F660F660FC801DE
:101C90000E946807C82E41E050E06E2DC8010E94E6
:101CA000C10ABB24B394BE0C40E06B2DC8010E9456
:101CB0006107282F47E06E2DC8010E94C309EB2C55
:101CC000FB1448F7D8011E96ED91FC911F973097B1
:101CD00049F053968C91811105C061E070E08F2D21
:101CE0000995C82EB8E0FB9EB0011124695F7F4FB3
:101CF000A4CFA088B188A114B10461F0660F660F6B
:101D0000660FC8010E946807482F61E070E08E2DC1
:101D1000F5010995C12CBFCF44E050E06E2DC801FC
:101D20000E94C10AE394FE14B8F78BCFA5016E2D73
:101D3000C8010E94C10AE394FE14C0F782CFD12CDF
:101D400089CFDD24D39486CFCF93DF93EC014AA1D2
:101D500069A1461720F0888199810E941D0D8B8D05
:101D6000882351F027E030E04AA169A18881998158
:101D7000DF91CF910C94450DDF91CF910895CF92D3
:101D8000DF92EF92FF920F931F93CF93DF93EC01BB
:101D9000D62EC42E790180E04617E0F02A303105B6
:101DA00008F069C0CE010E94820892E0E916F104B1
:101DB00009F453C0C0F4E114F10429F1F1E0EF1685
:101DC000F10409F443C0D394CD1478F7CE010E94F6
:101DD000DB0781E0DF91CF911F910F91FF90EF9092
:101DE000DF90CF90089583E0E816F104E9F194E0E4
:101DF000E916F10441F781E00115110509F480E0CD
:101E0000819599E006C081E00115110509F080E097
:101E10009CE04D2D50E029852150330B241B350BC0
:101E2000220F331F6C857D85260F371FF9019083A4
:101E300029852150330B241B350B220F331F4C8572
:101E40005D85240F351FF9018183BDCF802F0830B8
:101E500011050CF087E09BE0DCCF802F00311105ED
:101E60000CF08FE09AE0D5CF81E00115110509F45F
:101E700080E09FE0CECF81E00130110509F080E0E5
:101E8000FBE0EF16F10449F08A8B0130110509F0EF
:101E9000A0CFCE010E94A50C9CCF8B8B9ACF0F9325
:101EA0001F93FC01678F062F10E022E030E042A173
:101EB00061A1808191810E94BF0E1F910F910895B1
:101EC0000F931F939B018A01FC014185415060E003
:101ED0000E94BF0E1F910F9108950F931F93CF93F0
:101EE000DF93EC0188819981009759F02A813B8129
:101EF0002617370730F081E0DF91CF911F910F91C6
:101F000008958B016F5F7F4F0E94062B009759F059
:101F1000998388831B830A832C813D81232B59F766
:101F2000FC011082E8CF80E0E7CFCF92DF92EF9202
:101F3000FF920F931F93CF93DF937C016B01EA0114
:101F4000CA0101960E94E1298C010097F1F0AE01CF
:101F5000B6010E94C32BF801EC0FFD1F1082D701C0
:101F6000ED91FC910084F185E02DB801C701099540
:101F7000C8010E947D2ACE01DF91CF911F910F9160
:101F8000FF90EF90DF90CF900895D0E0C0E0F3CFC6
:101F9000CF92DF92EF92FF920F931F93CF936C013A
:101FA0007B01C42F8901DC019F96ED91FC91309754
:101FB00009F1808191818E159F05C1F40280F38122
:101FC000E02D80818C1708F4C82F4C2F50E0BF0102
:101FD0006F5F7F4FC8010E94C32B8C2FCF911F9141
:101FE0000F91FF90EF90DF90CF9008950480F581DE
:101FF000E02DDDCFF6018081918120AD31ADDC0196
:1020000054964D915C912417350751F021153105F7
:1020100011F422E730E0FC01358B248B0E942D0661
:102020000115110509F448C0D6012D913C91F90123
:10203000858D968DB0E0A0E0418D528DE416F506B9
:10204000A0F1638D748D6E157F0578F164897589B3
:10205000FB01E80FF91FE416F50659F0E4918E0F25
:10206000911DA11DB11D0196A11DB11D4F5F5F4FB7
:10207000EFCF4491C41710F50196A11DB11DA80121
:10208000801B910B642F601B6C1708F0A6CFBC015E
:10209000640F751FD9015496ED91FC91E60FF71F5F
:1020A000E491DA01ED93AD01EDCF4C2F50E070E0FB
:1020B00060E0C8010E94CC2BC0E08FCFC491DCCF80
:1020C0001F93CF93DF93EC01142F2AA93BA949A9B1
:1020D0000E94C80F112389F0882379F090E02CA981
:1020E000921758F429A9821730F4EAA9FBA9E80F3E
:1020F000F11D10828F5F9F5FF2CFDF91CF911F9113
:1021000008950F931F93CF93DF93EC018B01ECA500
:10211000FDA541E08181811101C040E0608170E056
:10212000CE010E946010F80180832E8D9A8D21FDD2
:1021300010C0992359F02E893F892530310581F44B
:10214000682F8AA99BA90E943A030AC0288D398D5D
:10215000F4CF9923B9F02E893F892530310581F7D5
:102160008E8D80FF06C0F80160818AA99BA90E941C
:102170005403CE010E948B0781E0DF91CF911F9124
:102180000F910895288D398DE8CF0F931F93CF932A
:10219000DF93EC01FB011082AAA5BBA5BDA7ACA7EC
:1021A000109719F08C91811108C081E08EA780E012
:1021B000DF91CF911F910F9108951EA68A8D9E8D5C
:1021C00091FD10C0882359F08E899F89059781F46D
:1021D0000D900020E9F71297BDA7ACA709C0888D24
:1021E000998DF4CF882331F18E899F89059781F7E6
:1021F000ACA5BDA541E011968C911197811101C04C
:1022000040E08B016C9170E0CE010E946010F801FB
:1022100080832E8D9A8D21FD13C0992371F02E8914
:102220003F892530310599F4682F8AA99BA90E941E
:102230003A030DC0888D998DD9CF288D398DF1CF76
:10224000992399F02E893F892530310569F78E8DC4
:1022500080FF06C0F80160818AA99BA90E945403EF
:10226000CE010E948B0781E0A3CF288D398DECCF62
:10227000CF92DF92EF92FF920F931F93CF93DF9352
:10228000EC010E94A40ECF84D8887E0185E3E80E7D
:10229000F11CB701CE010E94C5101FAA1EAA86011B
:1022A00089899A89081719077CF18DA92EA93FA958
:1022B0008217130611F081110AC01DAA8EA5811183
:1022C00004C0B701CE010E9481101FAA1EAA8DA9C9
:1022D000882331F3888199814EA95FA99A012F5FE4
:1022E0003F4FEAA9FBA9E40FF51F4B8D3FAB2EAB87
:1022F000442341F040814095B8010E94D209015029
:102300001109CECF4081F8CFDF91CF911F910F916E
:10231000FF90EF90DF90CF900895FF920F931F935F
:10232000CF93DF93EC01F62E8B859C85442309F433
:1023300062C08430910530F5019758F18B859C85FA
:10234000059721F483E090E09C878B87CE010E9463
:1023500038110BA11CA12DA188A599A5820F911D53
:1023600027FD9A9580179107E1F04B8D4195B801B3
:10237000888199810E94D2098DA1080F111D87FDC6
:102380001A95E9CF0597D1F285E090E09C878B877D
:102390002CC0CE010E94BB0783E090E09C878B8716
:1023A000CDCFFF2069F06BA17CA10617170741F084
:1023B0004B8D81E048274195888199810E94D209FF
:1023C0008BA19CA12DA1022E000C330B48A559A571
:1023D000420F531F8417950721F445E050E05C87B6
:1023E0004B87820F931F9CA38BA3DF91CF911F91EB
:1023F0000F91FF9008958430910500F5019700F149
:10240000CE010E9438110EA11FA16BA17CA18DA14C
:10241000082E000C990B9B01280F391F201731073C
:10242000B9F04B8D4195B801888199810E94D209FC
:102430008DA1080F111D87FD1A95E7CF059751F55E
:10244000CE010E94BB0783E090E09C878B87D8CFAA
:10245000FF2079F028A539A5820F931F6817790707
:1024600041F04B8D81E048274195888199810E94F8
:10247000D2098BA19CA12DA1022E000C330B48A5E3
:1024800059A5420F531F8417950709F0AACF46E0BC
:1024900050E0A5CF86E090E079CFEF92FF920F93C6
:1024A0001F93CF93DF93EC01F62E8B859C854423FD
:1024B00009F449C084309105C8F40197F0F0CE01C9
:1024C0000E94A40ECE010E9438111BA1FF2031F101
:1024D00093E0E92EF12C173028F597014AA169A164
:1024E000888199810E94450D1F5FF5CF059739F3CB
:1024F00085E090E09C878B871FC01CA21BA210E088
:1025000000E02BE030E04AA169A1888199810E9416
:10251000BF0E83E090E09C878B87D1CF82E0E82ECE
:10252000F12CD9CF8BA19CA125E030E0873091051B
:1025300011F101969CA38BA3DF91CF911F910F9175
:10254000FF90EF90089584309105C0F40197C0F09A
:102550008881998122E030E0F11002C023E030E070
:102560004AA169A10E94450D8BA19CA187309105CC
:1025700001F726E030E03C872B87DBCF059739F465
:102580001CA21BA283E090E09C878B87E1CF86E0B2
:1025900090E0B0CFCF92DF92EF92FF921F93CF9354
:1025A000DF93EC01D42E8B859C85662309F458C0FB
:1025B00084309105A8F50197D0F1CE010E94381121
:1025C0002BA13CA12830310569F1EEA0FFA081E0EC
:1025D00090E001C0880F2A95EAF7182FD1101095C6
:1025E0002DA188A599A5820F911D27FD9A958E157D
:1025F0009F0549F1C880D9806E2DC6010E946807E9
:102600009B8D412F9923E9F04095482BB701C601D6
:102610000E94D2098DA1E80EF11C87FDFA94E0CF4B
:10262000059759F285E090E09C878B8711C0CE0119
:102630000E94BB071CA21BA283E090E09C878B87B3
:10264000BCCF4823E3CF8BA19CA101969CA38BA375
:10265000DF91CF911F91FF90EF90DF90CF90089581
:102660008430910598F5019798F1CE010E943811B8
:102670008BA19CA110E097FD05C011E001C0110FD6
:102680008A95EAF7EEA0FFA0D11010952DA188A59C
:1026900099A5820F911D27FD9A958E159F0531F101
:1026A000C880D9806E2DC6010E9468079B8D412F7E
:1026B0009923D1F04095482BB701C6010E94D20959
:1026C0008DA1E80EF11C87FDFA94E0CF0597C1F4C7
:1026D000CE010E94BB0787E090E09CA38BA383E020
:1026E00090E09C878B87C1CF4823E6CF8BA19CA12C
:1026F00097FF04C026E030E03C872B870197A6CFE8
:1027000086E090E091CFFF920F931F93CF93DF93DA
:10271000EC01F42E8B859C85662309F444C084303B
:10272000910538F5019760F1CE010E9438112BA177
:102730003CA188A599A528173907E9F00EA11FA18A
:102740008DA1082E000C990B2BA13CA148A559A5E1
:10275000480F591F4017510709F464C0F11018C001
:1027600002171307C1F48DA1080F111D87FD1A95DB
:10277000E7CF0597C9F285E090E09C878B8756C02C
:10278000CE010E94BB0783E090E09C878B87CCCF73
:102790000217130741F74B8D4195B8018881998144
:1027A0000E94D209E0CF8430910500F5019700F135
:1027B000CE010E9438110EA11FA148A559A58DA1D7
:1027C000082E000C990B2BA13CA1BA01680F791FB0
:1027D0006017710701F1F11013C00217130799F484
:1027E0008DA1080F111D87FD1A95E7CF059721F5DB
:1027F000CE010E94BB0783E090E09C878B87D8CFF7
:102800000217130769F74B8D4195B80188819981AB
:102810000E94D209E5CF2417350724F446E050E0A2
:102820005C874B87820F931F9CA38BA3DF91CF9173
:102830001F910F91FF90089586E090E09ECFEF9258
:10284000FF920F931F93CF93DF93EC01162F8B858D
:102850009C85442309F488C08330910528F00397B0
:10286000B1F185E090E02AC06F85788989899A89DD
:102870009B01281B390BC90137FD0196959587955A
:1028800001969CA38BA31123B9F04B8D11E0412736
:102890004195681B790B888199810E94D2094B8DE3
:1028A0004127419569897A898BA19CA1680F791F7D
:1028B000888199810E94D20983E090E09C878B8770
:1028C000DF91CF911F910F91FF90EF9008958BA111
:1028D0009CA197FDC6CFCE010E943811F12CE12CAE
:1028E0006BA17CA1E616F706C4F44B8D419569896E
:1028F0007A896E0D7F1D888199810E94D2094B8D46
:1029000041956F8578896E197F09888199810E9428
:10291000D2093FEFE31AF30AE3CF615071097CA3B8
:102920006BA3112369F277FDCBCF4B8D11E04127CB
:10293000419589899A89680F791F888199810E94B8
:10294000D2094B8D412741956F8578898BA19CA138
:10295000681B790B88819981DF91CF911F910F912D
:10296000FF90EF900C94D2098330910531F108F07B
:1029700077C0019708F477C0CE010E94A40ECE0163
:102980000E9438111CA21BA2112399F04B8D01E06B
:10299000402741956F857889888199810E94D20965
:1029A0004B8D4027419569897A89888199810E9458
:1029B000D20983E090E09C878B872BA13CA16F8597
:1029C000788989899A89AB01481B590BCA0157FD3F
:1029D000019695958795821793070CF444C04B8D0B
:1029E0004195621B730B888199810E94D2094B8D9E
:1029F000419569897A898BA19CA1680F791F88818B
:102A000099810E94D2092BA13CA12F5F3F4F3CA38B
:102A10002BA3112309F454CF6F85788989899A896A
:102A2000AB01481B590BCA0157FD01969595879537
:102A3000821793070CF444CF4B8D11E04127419549
:102A4000621B730B888199810E94D2094B8D4127AB
:102A5000419569897A898BA19CA1680F791F7ACFEA
:102A6000059709F489CF86E090E028CFCF92DF92D6
:102A7000EF92FF920F931F93CF93DF93EC01162FEA
:102A80008B859C85442309F458C084309105B0F5AA
:102A9000019708F43AC0CE010E9438112BA13CA145
:102AA00090E080E0111102C08FEF90E02817390705
:102AB00039F1EEA0FFA02DA188A599A5820F911D47
:102AC00027FD9A958E159F0581F10B8DC880D980C1
:102AD0006E2DC6010E946807011180954BA111114E
:102AE0004095482301114095B701C6010E94D209C3
:102AF0008DA1E80EF11C87FDFA94DDCF059759F200
:102B000085E090E09C878B8771C0CE010E94BB0757
:102B10008FEF90E0111102C081E090E09CA38BA3A5
:102B200083E090E09C878B87B6CF8BA19CA111237B
:102B300009F457C09595879557C08430910550F595
:102B4000019750F1CE010E943811EEA0FFA02DA1F7
:102B500088A599A5820F911D27FD9A958E159F0531
:102B600059F10B8DC880D9806E2DC6010E9468076F
:102B7000011180954BA111114095482301114095F9
:102B8000B701C6010E94D2098DA1E80EF11C87FD94
:102B9000FA94DDCF0597C1F4CE010E94BB0781E016
:102BA00090E0111102C08FEF90E09CA38BA383E013
:102BB00090E09C878B87C6CF8BA19CA1111107C089
:102BC000009709F0B7CF06C086E090E09BCF8F3F1B
:102BD000910539F426E030E03C872B87112309F476
:102BE000A9CF880F991F81609CA38BA3DF91CF9100
:102BF0001F910F91FF90EF90DF90CF900895CF92AB
:102C0000DF92EF92FF920F931F93CF93DF93EC012C
:102C1000F62EC42E8B859C85222309F453C0843064
:102C2000910508F5019730F1CE010E94A40ECE0166
:102C30000E9438111BA1FF2071F193E0E92EF12CC5
:102C4000D12C173060F597014AA169A1888199813B
:102C50000E94450D96014AA169A1888199810E942F
:102C6000450D1F5FEECF0597F9F285E090E09C8758
:102C70008B871FC01CA21BA210E000E02BE030E0FD
:102C80004AA169A1888199810E94BF0E83E090E0EA
:102C90009C878B87C9CF82E0E82EF12CD1CF8BA106
:102CA0009CA125E030E08730910569F101969CA355
:102CB0008BA3DF91CF911F910F91FF90EF90DF9049
:102CC000CF9008958430910508F5019708F1888127
:102CD000998122E030E0F11002C023E030E04AA107
:102CE00069A10E94450D21E02C2530E04AA169A18F
:102CF000888199810E94450D8BA19CA18730910507
:102D0000A9F626E030E03C872B87D0CF059739F431
:102D10001CA21BA283E090E09C878B87D8CF86E023
:102D200090E0A5CFCF92DF92FF920F931F93CF93A6
:102D3000DF93EC01F62E8B859C85442309F484C037
:102D40008330910570F0039751F185E090E09C8706
:102D50008B87DF91CF911F910F91FF90DF90CF90E4
:102D600008951CA21BA2CE010E94A40EFF2099F080
:102D70004B8D11E0412741956F8578898881998134
:102D80000E94D2094B8D4127419569897A898881B2
:102D900099810E94D20983E090E09C878B87CE01C5
:102DA0000E94A40ECE010E94381109891A898F85CC
:102DB0009889801B910B97FD01966C01D594C7945F
:102DC0008BA19CA1080F191FC816D9060CF4BDCF02
:102DD0000F5F1F4F6F8578898BA19CA19B01281BDA
:102DE000390B0217130744F44B8D4195B8018881C4
:102DF00099810E94D209ECCF01969CA38BA3FF205E
:102E000009F4A7CFC816D9060CF4A3CF4B8D11E057
:102E100041274195681B790B888199810E94D209CD
:102E20004B8D4127419569897A898BA19CA1680FB7
:102E3000791F88819981DF91CF911F910F91FF9028
:102E4000DF90CF900C94D20983309105D1F1A0F599
:102E50000197A0F18F85988929893A89821B930B64
:102E600097FD0196959587959CA38BA3CE010E9413
:102E7000A40ECE010E943811FF20D9F04B8D11E035
:102E8000412741956F8578898BA19CA1681B790B9F
:102E9000888199810E94D2094B8D4127419569898A
:102EA0007A898BA19CA1680F791F888199810E94E2
:102EB000D20983E090E04BCF059761F286E090E085
:102EC00046CF8BA19CA197FDF9CF4B8D41956F8586
:102ED0007889681B790B888199810E94D2094B8D72
:102EE000419569897A898BA19CA1680F791F888196
:102EF00099810E94D2098BA19CA101979CA38BA3CD
:102F0000FF2009F426CF97FD24CF4B8D11E04127F8
:102F100041956F8578897ECF8F929F92AF92BF92B5
:102F2000CF92DF92EF92FF920F931F93CF93DF9395
:102F3000EC01F62E8B859C85442309F4E0C08E01BC
:102F40000B5C1F4F35E0C32ED12C82309105E9F088
:102F500050F08330910509F441C0049709F4A8C0EA
:102F600085E090E00FC0BE016B5C7F4FCE010E94F8
:102F7000C510811103C086E090E004C01FAA1EAAFC
:102F800083E090E09C878B870DC01DAA8EA58823C7
:102F9000B1F0DC86CB868B859C852DA9211116C0CE
:102FA000059799F7DF91CF911F910F91FF90EF90C7
:102FB000DF90CF90BF90AF909F908F900895B80111
:102FC000CE010E9481108111E6CFE3CF059751F326
:102FD0001FAA1EAA83E090E09C878B878DA9882377
:102FE00029F121E02F2530E04AA169A1888199814A
:102FF0000E94450D888199816B8D2AA93BA94EA914
:103000005FA9662301F1BA016F5F7F4F7FAB6EABA3
:10301000240F351FF90140814095FF20F1F069A18F
:10302000F8E06F9FB00111240E94D2092DA98EA94A
:103030009FA92817190609F0B5CF8EA5811115C0D3
:1030400082E090E09FCFBA016F5F7F4F7FAB6EABA6
:10305000240F351FF9014081E0CF6AA128E0629F6B
:10306000B0011124695F7F4FDFCF2F853889FF20A2
:10307000B1F08D859E85A901481B590BCA010196A7
:1030800029A158E0259F8019910911249FAB8EAB8F
:10309000181619060CF064CF84E090E073CF8AA173
:1030A000E8E08E9FC00111240796821B930BEECFA0
:1030B00021E0262730E04AA169A1888199810E94F8
:1030C000450D888199814B8D4195FF2081F069A143
:1030D000F8E06F9FB00111240E94D2098EA99FA928
:1030E00001979FAB8EAB892B09F05CCF39CF6AA1DA
:1030F00028E0629FB0011124695F7F4FEDCF8430DB
:10310000910539F0059709F036CF84E090E09C876F
:103110008B8721E02F2530E04AA169A18881998120
:103120000E94450D888199814B8D4195FF2009F4BE
:1031300045C069A138E0639FB00111240E94D20903
:103140000AA110E0A9A0B12C6801CA18DB088FEF12
:10315000C81AD80A23E0CC0CDD1C2A95E1F78C8D27
:103160009D8D009721F08C159D0508F46C010F5F73
:103170001F4F83E0000F111F8A95E1F793E0AA0C1F
:10318000BB1C9A95E1F7FF2021F145017401EA1873
:10319000FB0880169106DCF5682D888199810E94D4
:1031A000680790E02B8D222389F02FEF30E0821703
:1031B000930769F5EFEF8E1A9E0AE8CF6AA158E0EF
:1031C000659FB0011124695F7F4FB8CF30E020E0E8
:1031D000EECF01501109F12CE12C0A151B05BCF0B2
:1031E000602F888199810E94680790E02B8D2223AF
:1031F00059F02FEF30E08217930749F4015011097D
:10320000FFEFEF1AFF0AE9CF30E020E0F4CFEC1433
:10321000FD0408F0B0CEC6CE2F923F924F925F923F
:103220006F927F928F929F92AF92BF92CF92DF92D6
:10323000EF92FF920F931F93CF93DF93CDB7DEB73B
:103240002D970FB6F894DEBF0FBECDBF9A8389834A
:103250007D836C83DC019396ED91FC919497969617
:103260008C91882311F073A762A7A981BA819696E1
:103270008C91882311F010861782A981BA819696C5
:103280008C91882311F012861186A981BA819696B5
:103290008C91882341F081E090E0978B868B118E92
:1032A000108E14861386E981FA813496FF83EE83AB
:1032B00006E010E0E5E06E2E712CF3E04F2E512C6D
:1032C00050E040E06AE070E08E819F810E94600FD4
:1032D000212C1B82A981BA8196968C9196972816EB
:1032E00010F00C94D8219396ED91FC9122E4229E4B
:1032F000E00DF11D1124FD87EC8710A283859485D4
:103300008630910511F40C94D6210597E1F00E94C6
:103310002106AC85BD851396CD90DD90ED90FC9097
:103320001697AB01BC014C195D096E097F09179610
:103330008D919C91B0E0A0E0481759076A077B0780
:10334000D0F480E088C10E942106EC85FD85C38011
:10335000D480E580F680AB01BC014C195D096E0993
:103360007F0981859285B0E0A0E0481759076A0778
:103370007B0768F6E6CFAC85BD8512969C909110D0
:10338000E0CF0E942106EC85FD85638374838583ED
:10339000968381E080A3A2A4B3A4A114B10409F48C
:1033A00051C183859485009709F433C0069709F4C9
:1033B00049C1AC85BD855A963C905A97332009F493
:1033C000F8C05696ED91FC913197EC31F10508F07B
:1033D00073C1E351F64E0C94DB29031B0C1B301B0D
:1033E000331B3A1B0C203D1BB31C7E1DC11E0B1E44
:1033F0004B1F8A2191219B219421A4219D21A6214B
:10340000AD21B021B721BA21C221C521C921CC21CA
:10341000D321AC85BD859D96BC92AE929C97929629
:10342000EC90B8E0EB9E70011124F70137967F0114
:10343000AC85BD8591968C91B8E08B9FE018F10822
:103440001124EFEFEE1AFE0AD12CC12CD5016D919B
:103450005D016623C1F0EC85FD8522A933A970E0EA
:1034600041A9CF010E94C80F90E0C80ED91E892B38
:1034700069F3D5018C91882349F3EC85FD8584A9F6
:10348000C80ED11CE3CFAC85BD851E96DC92CE92D2
:103490001D9754968D919C918130910509F455C0EA
:1034A00028F0029771F1992493941DC0EC85FD8555
:1034B00082A190E0019673E0880F991F7A95E1F759
:1034C0009C0121503109308B2787EC14FD0490F4C6
:1034D00081A1F8E08F9FC0011124AC85BD85529673
:1034E0009C938E93519781E09826EC85FD85938A75
:1034F000828F5FCF8C199D09EC85FD85928B818B26
:10350000D2CFAC85BD8591968C91B8E08B9FC001E0
:103510001124EC85FD85928B818BEC14FD0468F4FD
:1035200082A1F8E08F9FC00111240796AC85BD856C
:1035300050969C938E931F97D6CF0197C80ED91E95
:10354000EC85FD85D08AC786AECFAC85BD859196CA
:103550002C91B8E02B9F90011124EC14FD0498F4F9
:10356000EC85FD8582A1F8E08F9FC00111240796AC
:10357000AC85BD8550969C938E931F9752963C9335
:103580002E935197B0CFEC18FD08F694E794E20E15
:10359000F31EEC85FD85F28AE18AF1E0CF1AD108AD
:1035A000CE0CDF1CAC85BD855096DC92CE921F9769
:1035B0007ACFAC85BD855896ED91FC913197EC3171
:1035C000F10508F079C0E951F54E0C94DB29F01DA6
:1035D0000C1B301B331B3A1B0C203D1BB31C7E1DE8
:1035E000C11E0B1E4B1F8A2191219B219421A421D6
:1035F0009D21A621AD21B021B721BA21C221C5212B
:10360000C921CC21D3218C859D850E943811EC8560
:10361000FD857486638606C0432D61E08C859D859B
:103620000E944D12EC85FD85828D2385348588238B
:1036300029F081E02530310509F480E0AC85BD85B5
:103640005A968C9381E0EC85FD8523853485263060
:10365000310509F076CEFB81F82BFB8323943ACE1B
:10366000432D60E0DBCF432D61E08C859D850E947A
:103670008C17D8CF432D60E0F8CFEC85FD8583858E
:103680009485332009F4EAC07F01F5E3EF0EF11CC5
:1036900082309105A1F130F0039709F45BC0AC854D
:1036A000BD8566C26C857D856B5C7F4F8C859D85F5
:1036B0000E94C510811103C0AC85BD85CDC68C8527
:1036C0009D850E94A40EEC85FD8517AA16AA81A1EE
:1036D000F8E08F9FC0011124AC85BD8594969C9322
:1036E0008E9393971F968D919C91509799969C934A
:1036F0008E9398971C965C924E921B9793CFEC8575
:10370000FD8515AA86A5882381F0AC85BD851C960C
:103710007C926E921B97EC85FD858385948525A907
:1037200021110BC0059759F77DCFB7018C859D8579
:103730000E9481108111EFCFE8CF059709F472CF75
:10374000AC85BD85D7961C921E92D6971C965C922E
:103750004E921B97EC85FD8563A174A180A591A570
:1037600002A8F3A9E02DAC85BD85D6962D913C919C
:10377000D797E20FF31F40816817790751F48D91B5
:103780009C9111975B962C91211140950E94D20932
:103790003ECF411135C0AC85BD8594969C938E93E8
:1037A0009397EC85FD8583A194A120A531A582176F
:1037B0009307C1F426A937A941A1F8E04F9FA001C2
:1037C0001124AC85BD8594965C934E9393972F5F9F
:1037D0003F4FD7963C932E93D697019799969C93FB
:1037E0008E939897EC85FD8525A986A997A928171A
:1037F000190609F017CF82E090E09487838712CFF3
:10380000EC85FD85438D4195808191810E94D2098F
:10381000AC85BD8593966D917C9194976F5F7F4F3A
:1038200094967C936E9393978D919C9111975B9650
:10383000EC915B97D2962D913C91D397D6964D9172
:103840005C91240F351FEE2331F0F9014081409542
:103850000E94D209A6CFD9014C91FACF81309105AF
:1038600008F42ACF8430910568F0059709F024CF39
:10387000EC85FD858785908991A780A794A383A374
:1038800054864386AC85BD85CD90DC9011975B96C0
:103890008C9188248A94912C811102C0912C812CC6
:1038A000EC85FD85A188B288AC85BD859396ED90A9
:1038B000FC906E2DC6010E946807EC85FD8520A551
:1038C00031A58815190451F42A153B053CF0C901AE
:1038D000019791A780A734A323A3E6CF2F5F3F4F83
:1038E0002A153B050CF4E8CEEC85FD8522A1F8E015
:1038F0002F9F90011124295F3F4FE216F3063CF4FD
:10390000B7016F5F7F4F482FC6010E94D209AC8577
:10391000BD855B964C915B97419593966D917C919B
:1039200094978D919C910E94D209EC85FD8523A1ED
:1039300034A12F5F3F4F34A323A382A190E00196CF
:1039400043E0880F991F4A95E1F72817390709F0D6
:1039500069CE80A591A59C012150310931A720A7EE
:1039600094A383A35FCEEC85FD8583859485332066
:1039700009F467C08430910508F042C0019708F44B
:1039800043C08C859D850E94A40E8C859D850E94D8
:103990003811EC85FD8591A0990C990C990C88241F
:1039A0008394AC85BD859396ED90FC909497929608
:1039B0008C91929790E0019623E0880F991F2A95A9
:1039C000E1F7A92CB12CA816B90674F5CD90DC90BE
:1039D000692DC6010E946807482F50E087E090E0FB
:1039E0008E199F093320D9F002C0559547958A95C5
:1039F000E2F7B501C6010E94D20938249394D1CFD1
:103A0000059709F4BECF03CEAC85BD8594961C9274
:103A10001E9293971C965C924E921B97B2CF01C058
:103A2000440F8A95EAF7E5CFBFEFEB1AFB0AEC8566
:103A3000FD85F4A2E3A2F8E0EF16F10409F0F2CD5F
:103A40002ECE8430910598F50197A0F1AC85BD8507
:103A500091969C90990C990C990C8824839433240A
:103A60003394EC85FD85E3A0F4A082A190E001965B
:103A7000B3E0880F991FBA95E1F7A92CB12CA816CD
:103A8000B9065CF5C080D180692DC6010E94680727
:103A9000482F50E08820D9F001C0440FEA94EAF79B
:103AA000B501C6010E94D20983249394DACF059709
:103AB00009F002CEE1E0F0E0AC85BD859496FC9380
:103AC000EE9393971C965C924E921B97BFCF02C0C9
:103AD00055954795EA94E2F7E3CFFFEFEF1AFF0A17
:103AE000AC85BD859496FC92EE929397B8E0EB1668
:103AF000F10409F097CDEC85FD85BCC2EC85FD8510
:103B000083859485332009F45AC08430910500F5EB
:103B10008230910500F5009781F1019709F0BFCD42
:103B2000AC85BD8593966D917C919497CB01019660
:103B300094969C938E939397CD010E944F0F8C8502
:103B40009D850E943811EC85FD85548643866ACD9B
:103B5000059709F0A4CDAC85BD8593966D917C91B8
:103B6000949798968D919C91999786179707ECF466
:103B70001C967C926E921B9755CDAC85BD85949614
:103B80001C921E9293975F968C915F9790E0999606
:103B90009C938E939897CD010E94A40E21E030E073
:103BA000EC85FD85348723873DCDCB010196EC85DF
:103BB000FD8594A383A3CF010E944F0F33CD8430A2
:103BC000910598F40197A0F0EC85FD8563A174A19F
:103BD000CB01019777FFEBCF60A5CF010E944F0F7C
:103BE0008C859D850E94A40E67CD059709F064CD54
:103BF000EC85FD85678D862F90E091A780A794A323
:103C000083A3CF010E944F0F8C859D850E943811A0
:103C1000AC85BD856FCDEC85FD858385948582302F
:103C2000910509F45DC048F4009769F00197B9F077
:103C300031102EC186E090E0E6C08330910509F492
:103C400092C00597A9F7AC85BD8594961C921E92EB
:103C50009397E1E0F0E01C96FC93EE931B97AC8504
:103C6000BD8593968D919C919497019694969C9383
:103C70008E9393979196EC90B8E0EB9E700111248F
:103C8000DD24D394EC85FD8523A134A182A190E0AD
:103C90000196A3E0880F991FAA95E1F7E816F906A7
:103CA00094F4C701837099278217930744F4438DD6
:103CB0004D254195B701808191810E94D209FFEF86
:103CC000EF1AFF0ADFCF82E090E02430310509F0DF
:103CD000A9CCAC85BD851C969C938E931B97A2CCDA
:103CE0008C859D850E94A40E332021F08C859D85B6
:103CF0000E943811EC85FD8583A194A1019794A3BE
:103D000083A3E1A0F8E0EF9E70011124DD24D39499
:103D1000AC85BD8593962D913C91949792968C910C
:103D2000929790E00196F3E0880F991FFA95E1F7DA
:103D3000E816F906A4F4C701837099278217930740
:103D400054F45B964C915B974D254195B7018D914D
:103D50009C910E94D209BFEFEB1AFB0AD9CF232B0B
:103D600009F060CCF0CE8C859D850E94A40E332096
:103D700009F412C18C859D850E94381185E090E080
:103D8000A8CFAC85BD851B968D919C918230910505
:103D900009F43CC038F08330910509F46EC00597F2
:103DA00009F0F8C0EC85FD85E1A0F8E0EF9E700118
:103DB0001124AC85BD8592968C91929790E00196E6
:103DC000E3E0880F991FEA95E1F7E816F906CCF4CD
:103DD0005B96BC905B97CD90DC906E2DC6010E94E7
:103DE0006807B110809545E5E0FE4AEA482BB1101E
:103DF0004095B701C6010E94D209BFEFEB1AFB0A3A
:103E0000D8CF82E090E0EC85FD85F7CC8C859D8550
:103E10000E94A40E332021F08C859D850E943811CC
:103E2000AC85BD859196EC90B8E0EB9E70011124B5
:103E3000EC85FD8582A190E0019673E0880F991FC3
:103E40007A95E1F7E816F9060CF0E2CEB38CC08063
:103E5000D1806E2DC6010E946807B11080954AEA94
:103E6000E0FE45E5482BB1104095B701C6010E9420
:103E7000D209FFEFEF1AFF0ADBCF8C859D850E94E8
:103E8000A40E332009F4D6CE8C859D850E9438116E
:103E900085E090E0B8CFEC85FD85838594858430FE
:103EA000910508F07CC0019708F47CC0EC85FD8585
:103EB00014A213A20E94BF284B015C010E94BF28DC
:103EC000688779878A879B87AC85BD859396CD90D7
:103ED000DC90BFEFCB1ADB0AEC85FD85D4A2C3A230
:103EE000C501B4012BE030E040E050E00E944129E0
:103EF00070E09B01285C3E4F7901D901BC90688538
:103F000079858A859B8528E030E040E050E00E947A
:103F100041298B2D90E0062E02C0959587950A9435
:103F2000E2F780FF05C0B8E8CB16B3E1DB0614F278
:103F300081E090E001C0880F6A95EAF7B82AF7019E
:103F4000B0828C859D850E943811AC85BD85949684
:103F50001C921E9293979196BC90BB0CBB0CBB0C11
:103F6000EC85FD8582A190E0019663E0880F991FA2
:103F70006A95E1F7CB2CD12CC816D90614F1E8E3E9
:103F8000F1E081918F3F09F04DCB20E431E02E1715
:103F90003F07B9F73110F2CE86E090E09ACE059750
:103FA00009F046CEE8E3F1E0119223E431E02E1768
:103FB0003F07D1F7AC85BD851C965C924E921B974E
:103FC00075CFAC85BD85ED90FC906B2DC7010E942F
:103FD0006807AC85BD859396ED91FC91E85CFE4F3A
:103FE0004081311001C040954823B601C7010E94AD
:103FF000D209EC85FD8583A194A101968B309105B2
:1040000021F094A383A3B394ABCFAC85BD859496E4
:104010001C921E929397F7CFAC85BD851B968D9110
:104020009C913110F9C18430910508F0F1C10197DC
:1040300008F0DAC08C859D850E94BB07AC85BD85E4
:1040400096968D919C91979798962D913C919997E2
:104050008217930744F497963C932E9396979996DC
:104060009C938E939897EC85FD8584AD95AD892BB7
:1040700009F0AAC014870387D5CAEC85FD8515A26F
:1040800082A190E0019653E0880F991F5A95E1F7BD
:1040900094A383A3548643868C859D850E94381102
:1040A000AC85BD8593968D919C919497019794963C
:1040B0009C938E939397F12CEC85FD8526AD63A19F
:1040C00074A1F21608F03CC0EF2DF0E06E0F7F1FD8
:1040D000AC85BD8592968C91929790E0019643E0D5
:1040E000880F991F4A95E1F7681779072CF5919683
:1040F0008C91B8E08B9FC001112468177907E4F018
:10410000AC85BD858D919C91119795964C91959715
:104110004203A00111244E0F5F1FDA96ED91FC912E
:10412000DB97E40FF51F5B962C91222339F0E49185
:104130004E2F40950E94D209F394BECF4491FACFFE
:104140007B01B1E0EB1AF108EC85FD8580A591A516
:10415000E816F9065CF0438D4195B70180819181A5
:104160000E94D209F1E0EF1AF108EECFAC85BD85CF
:1041700095968C9195978F5F95968C939597082E31
:10418000000C990BFD01E05CFF4F208128171906F8
:1041900009F014F495961C92EC85FD8581A1F8E058
:1041A0008F9FC0011124AC85BD85DE962C91DE97D2
:1041B000821B9109019793962D913C919497281712
:1041C000390709F02FCAD4CCAC85BD8591968C9166
:1041D000B8E08B9FC00111240197EC85FD8594A365
:1041E00083A315A2548643868C859D850E94381131
:1041F000AC85BD8593968D919C91949701969496EC
:104200009C938E939397F12CEC85FD8527AD63A14C
:1042100074A1822F90E0F216B8F54F2D50E0641B88
:10422000750B82A190E0019633E0880F991F3A95B3
:10423000E1F76817790724F581A1F8E08F9FC001A5
:10424000112468177907E4F0AC85BD858D919C91A8
:10425000119795963C919597320390011124420F46
:10426000531FDC96ED91FC91DD97E40FF51F5B96F3
:104270002C91222339F0E4914E2F40950E94D209CF
:10428000F394C2CF4491FACF7B01E81AF90AEC8586
:10429000FD8580A591A5E816F9065CF0438D419552
:1042A000B701808191810E94D209F1E0EF1AF108F3
:1042B000EECFAC85BD8595968C9195978F5F959641
:1042C0008C939597082E000C990BFD01EF5BFF4F27
:1042D00020812817190609F014F495961C92EC8594
:1042E000FD8582A1F8E08F9F90011124295F3F4F47
:1042F000AC85BD85DF968C91DF97820F932F911D42
:10430000019693962D913C9194972817390709F0BF
:1043100089C9A2C0432D60E08C859D850E948D11C6
:1043200081C9432D61E0F8CF41E0632D8C859D85E7
:104330000E94831377C940E0F8CF41E0632D8C855C
:104340009D850E94CA126EC940E0F8CF432D60E0FF
:104350008C859D850E941F1465C9432D61E0F8CFAF
:10436000432D60E08C859D850E9492165BC9432D8C
:1043700061E0F8CF232D41E061E08C859D850E94AE
:10438000FF1550C9232D40E0F7CF232D41E060E019
:10439000F4CF232D40E0FBCF432D61E08C859D853C
:1043A0000E9436153FC9432D60E0F8CF81E053C924
:1043B00041E050E06AE070E08E819F810E94600FD2
:1043C0002B8121110C946019EC81FD81019000205A
:1043D000E9F73197CF01AC81BD818A1B9B0B2D96EC
:1043E0000FB6F894DEBF0FBECDBFDF91CF911F9106
:1043F0000F91FF90EF90DF90CF90BF90AF909F9084
:104400008F907F906F905F904F903F902F90089586
:10441000059709F40FCE6FCB8430910510F5019705
:1044200008F03ACE8C859D850E94BB07EC85FD8502
:1044300086A197A120A531A58217930724F437A35D
:1044400026A391A780A7AC85BD85DA968D919C9116
:10445000DB97892B09F011CE1C961C930E931B97AA
:10446000E1C8059709F418CED2C81F920F920FB673
:104470000F9211242F933F934F935F936F937F93EA
:104480008F939F93AF93BF93EF93FF938AE591E050
:104490000E94F503FF91EF91BF91AF919F918F9192
:1044A0007F916F915F914F913F912F910F900FBE30
:1044B0000F901F9018951F920F920FB60F92112414
:1044C0002F938F939F93EF93FF93E0916A01F09165
:1044D0006B018081E0917001F091710182FD1BC040
:1044E0009081809173018F5F8F7320917401821787
:1044F00041F0E0917301F0E0E65AFE4F958F809312
:104500007301FF91EF919F918F912F910F900FBEAB
:104510000F901F9018958081F4CF1F920F920FB6C5
:104520000F9211242F933F938F939F93AF93BF9339
:104530008091460190914701A0914801B0914901B5
:104540003091450123E0230F2D3758F50196A11D29
:10455000B11D209345018093460190934701A0939C
:104560004801B093490180914A0190914B01A0917B
:104570004C01B0914D010196A11DB11D80934A01DE
:1045800090934B01A0934C01B0934D01BF91AF911B
:104590009F918F913F912F910F900FBE0F901F9081
:1045A000189526E8230F0296A11DB11DD2CF1092B7
:1045B0005D0110925C0188EE93E0A0E0B0E0809392
:1045C0005E0190935F01A0936001B093610183E16C
:1045D00091E090935B0180935A0185EC90E0909379
:1045E00067018093660184EC90E090936901809369
:1045F000680180EC90E090936B0180936A0181ECFC
:1046000090E090936D0180936C0182EC90E0909328
:104610006F0180936E0186EC90E09093710180931E
:104620007001109273011092740110927501109232
:1046300076011092200210921F0285E291E0909381
:104640001E0280931D0210922602109227028AE019
:104650008093280281E08093290298E090932A02B7
:104660008093330223E030E0309322022093210232
:10467000809323021092240210922502909342020A
:104680001092080210920F02109216021092170256
:104690001092180210921902809315028093120250
:1046A0001092130292E0909314028093070280E923
:1046B00090E090930C0280930B020E94E12990936A
:1046C000110280931002009709F461C020E9FC01F7
:1046D00011922A95E9F780E390E090930A02809383
:1046E000090282E090E090930E0280930D02809187
:1046F0000802882341F061E082E00E94DB0460E070
:1047000082E00E94AD04EAEDF5E0E491F0E0EE0F06
:10471000FF1FE253FA4F8591949190931B0280936F
:104720001A02ECEBF5E0E491E0931C0280E090E0EB
:10473000AFEFB0E08093F7019093F801A093F901F7
:10474000B093FA0180E09FEFAFEFB0E08093FB0100
:104750009093FC01A093FD01B093FE018FEF90E0D8
:10476000A0E0B0E08093FF0190930002A0930102CB
:10477000B093020280E09FEFA0E0B0E080930302DC
:1047800090930402A0930502B0930602089510923C
:104790000C0210920B0210920A0210920902A1CF91
:1047A000CF93DF93CDB7DEB763970FB6F894DEBF34
:1047B0000FBECDBF789484B5826084BD84B581601E
:1047C00084BD85B5826085BD85B5816085BD8091DC
:1047D0006E00816080936E00109281008091810054
:1047E000826080938100809181008160809381004C
:1047F000809180008160809380008091B10084600E
:104800008093B1008091B00081608093B00080916E
:104810007A00846080937A0080917A00826080932D
:104820007A0080917A00816080937A0080917A008A
:10483000806880937A001092C10061E082E00E945B
:10484000DB0460E083E00E94DB048091290288237E
:1048500009F4DFC01FB7F89480914E01811127C081
:10486000E2EEF5E08491E4ECF5E09491E82FF0E0DD
:10487000EE0FFF1FE859FF4FA591B491EC91E9238A
:1048800021F461E08AE00E94AD0461E08AE00E94C8
:10489000DB048CB580618CBD8CB580648CBD61E01F
:1048A0008DE00E94DB0461E08BE00E94DB048091DC
:1048B0004E018F5F80934E011FBF61E080912802FF
:1048C0000E94DB0461E0809128020E94AD041092F6
:1048D000300210922F021092320210923102109187
:1048E0002A0229E0129FC00111240E94E12990931D
:1048F0002C0280932B02812F90E0880F991F0E9439
:10490000E12990932E0280932D028091350290919F
:1049100036028257904051F082E790E09093360241
:104920008093350281E292E00E942D0650E040E043
:1049300063E070E081E292E00E94600F47E050E0A7
:1049400061E070E081E292E00E94600F47E050E099
:1049500062E070E081E292E00E94600F50E040E08F
:1049600064E070E081E292E00E94600F40912A02D0
:10497000415060E081E292E00E941D0D50E040E075
:1049800070E060E081E292E00E94600F11E010931D
:10499000430284E490E00E94E129FC0181E090E080
:1049A000918380831482158216821782108686E096
:1049B00090E096878587178E168E10A212AA11AAEC
:1049C00013AA15AA14AA16AB13AE12AE15AE14AEE6
:1049D00017AE16AE3296F0934102E093400210E01B
:1049E00002E481E2E82E82E0F82E80914302E09119
:1049F0004002F09141021817B8F4CF01109F800DCA
:104A0000911D1124FC01F182E0820E9464081F5F65
:104A1000ECCF61E0809126020E94DB0461E080918E
:104A200027020E94DB0449CF813041F49091420279
:104A30008FEF890F891710F411A282A380E092E40E
:104A40002AE030E040914302841758F4DF01899F47
:104A5000A00DB11D112418963C932E9317978F5FCC
:104A6000F1CF878190854AE0489F9001499F300DA2
:104A7000112480E092E440914302841758F4DF014E
:104A8000899FA00DB11D11241A963C932E9319975E
:104A90008F5FF1CF10E0B2E4FB2E01E0E091400225
:104AA000F091410280914302181758F4CF011F9DE5
:104AB000800D911D1124FC0104AB0E9464081F5F4E
:104AC000EDCF80E092E420914302821758F4DF0199
:104AD000899FA00DB11D11245D961C921E925C97BA
:104AE0008F5FF1CF80E022E490914302DF018917CC
:104AF00088F080E021E030E08917B1F057963C93D0
:104B00002E93569759961C921E9258978F5FAE5BC4
:104B1000BF4FF2CF829FA00DB11D112455961C925C
:104B20001E9254978F5FE0CF13A612A680E092E406
:104B300020914302821748F4DF01899FA00DB11D27
:104B400011245B961C928F5FF3CF10E002E48091FA
:104B50004302181768F4809140029091410267E087
:104B6000109F800D911D11240E944F0F1F5FEFCFEA
:104B70008091350290913602892B51F082E790E0C6
:104B8000909336028093350281E292E00E942D06D6
:104B900080910D0290910E0297FD08C061E00E9485
:104BA000DB0460E080910D020E94AD0481E08093FF
:104BB00008020E943105E0916A01F0916B0182E0E8
:104BC0008083E0916601F09167011082E0916801B5
:104BD000F09169018FEC808310927201E0916E0177
:104BE000F0916F0186E08083E0916C01F0916D019E
:104BF000808180618083E0916C01F0916D01808102
:104C000088608083E0916C01F0916D018081806803
:104C10008083E0916C01F0916D0180818F7D8083B4
:104C200080E480937C0080917A00806480937A0095
:104C300080917A0086FDFCCF8091780060917900A8
:104C4000762F682F072E000C880B990B61157105C4
:104C50008105910511F00E940E298E010F5F1F4FF3
:104C6000FF24F394E0900001F4E6FE1508F42EC151
:104C7000809158018111C5C00E94BF2825E030E015
:104C800040E050E00E944129709357016093560123
:104C90000E94BF2824E030E040E050E00E9441291B
:104CA0007093550160935401809056019090570184
:104CB000A3E0880C991CAA95E1F740900902509056
:104CC0000A028414950408F07FC0660F771F660FF0
:104CD000771F69507E4FFB01408151816281738152
:104CE000C40108968415950508F42C01A62FB52F4C
:104CF000A72EBB24CC24DD24A88ABA8AA98A340131
:104D0000312C212C4B8B6414750408F05DC080910C
:104D1000090290910A0268167906C0F5EB88F091B5
:104D20000F025D01FF2361F0AF9FC0011124A92E86
:104D3000FB9FC0011124B92EF49FC0011124E92E5C
:104D4000E0911502C0901002D090110280911202E1
:104D50009401220D331DE81320C0C901880F991F4B
:104D6000820F931F8C0D9D1DE0911202E80FF92F09
:104D7000F11DA082E0911302E80FF92FF11DB0821E
:104D800020911402820F911DFC01E082FFEF6F1A47
:104D90007F0A2FEF221A320AB6CFC901880F991F56
:104DA000880F991F8C0D9D1D2889FF2341F0C9880C
:104DB000DA88FC9D9001FD9D300D1124232FE80F12
:104DC000F92FF11D2083D0CF0E9431050E942106CA
:104DD000609350017093510180935201909353015D
:104DE000F092580180E0C82E80E0D82ECD2809F43A
:104DF00039CF0E94E103882309F434CF0E940000D8
:104E000031CF0E9421068090500190905101A090D6
:104E10005201B0905301681979098A099B096838D1
:104E200073418105910508F035C080914F018111D2
:104E300031C0209156012D5F30E0F901EA55FA4F5B
:104E40008491F901E654FA4FE490F901E852FA4FDF
:104E5000D490DD2009F4C6CF81110E948404ED2D89
:104E6000F0E0EE0FFF1FE456FA4FA591B491EC91DC
:104E7000EE2209F4B7CFF0924F01E0915401F09186
:104E80005501E55FFE4F809159019081890F809314
:104E90005901A8CF40910B0250910C0270E060E0E4
:104EA00080911002909111020E94CC2B0E9431053A
:104EB000E394E09200011092580110924F0168EEC5
:104EC00073E080E090E00E94EF058CCF8091590163
:104ED0001B861A861D861C861F861E864AE0B80120
:104EE00090E00E941729F80101900020E9F731971E
:104EF0006F01C01AD10AB601CE010A960E946D0F49
:104F00002A853B85811160C02115310519F0C90141
:104F10000E947D2A1B861A861F861E861D861C8679
:104F20001A8219821C821B821E821D8268E070E038
:104F3000C8010E946D0F29813A8181114CC0211551
:104F4000310519F0C9010E947D2A1A8219821E8238
:104F50001D821C821B82AA84BB84A114B10409F4A3
:104F600044C0CE84DF84C114D104A9F08D819E8118
:104F7000C80ED91EB601C8010E946D0F8823A9F181
:104F800029813A818D819E81B501820F931F0E94F4
:104F9000D32BDE82CD824D815E8169817A818DE164
:104FA00092E00E94950F89819A81009711F00E94EA
:104FB0007D2A8A859B85009711F00E947D2A60EAF0
:104FC0007FE080E090E07FCFDF86CE86B801C90128
:104FD0000E94D32BA5CF88E090E09E838D836FE263
:104FE00071E0C9010E94D32BB6CF89819A810097C5
:104FF00011F00E947D2A1A8219821E821D821C8253
:105000001B82C9CF0F931F93CF93DF938091100220
:10501000909111020E947D2A80910D0290910E02C2
:1050200097FD03C060E00E94DB0485E291E090936D
:105030001E0280931D02C0914002D0914102209730
:1050400059F1FE0132972081318142E4429FC00133
:10505000439F900D1124C80FD91F80914002909159
:1050600041028C179D07A1F0C254D1098FA598A9C0
:10507000009739F0FC01048115810E947D2AC80146
:10508000F7CF8AA99BA9009741F30E947D2AE5CF1B
:10509000CE0102970E947D2A80912902882399F0EF
:1050A0009FB7F89480914E01882319F08150809326
:1050B0004E0180914E01811105C08CB58F7B8CBD56
:1050C000109244019FBF80912B0290912C020E946C
:1050D0007D2A80912D0290912E02DF91CF911F9118
:1050E0000F910C947D2A8F929F92AF92BF92CF9294
:1050F000DF92EF92FF92CF93DF93EC016881798189
:105100008A819B81611571058105910521F464E215
:1051100079ED8BE597E02DE133EF41E050E00E941F
:10512000412949015A019B01AC01A7EAB1E40E945F
:1051300060296B017C01ACEEB4EFA50194010E94E3
:105140006E29C60ED71EE81EF91EF7FE06C081E0C6
:10515000C81AD108E10880E8F80AC882D982EA8230
:10516000FB82C701B6019F77DF91CF91FF90EF904F
:10517000DF90CF90BF90AF909F908F9008958F92C7
:105180009F92AF92BF92CF92DF92EF92FF92609187
:105190000101709102018091030190910401611558
:1051A00071058105910521F464E279ED8BE597E0C5
:1051B0002DE133EF41E050E00E94412949015A01BD
:1051C0009B01AC01A7EAB1E40E9460296B017C015C
:1051D000ACEEB4EFA50194010E946E29C60ED71E55
:1051E000E81EF91EF7FE06C081E0C81AD108E108E2
:1051F00080E8F80AC0920101D0920201E092030116
:10520000F0920401C701B6019F77FF90EF90DF9005
:10521000CF90BF90AF909F908F90089560930101C1
:105220007093020180930301909304010895BB27BA
:10523000FB015527AA27880F991FAA1FA41710F052
:10524000A41B83955051B9F7A05DAA3308F0A95D5E
:10525000A193009779F7B111B1931192CB010C94FE
:105260003129DC01FC01672F71917723E1F7329737
:1052700004C07C916D9370836291AE17BF07C8F331
:105280000895052E97FB1EF400940E94582957FD9F
:1052900007D00E94AA2907FC03D04EF40C94582989
:1052A00050954095309521953F4F4F4F5F4F089552
:1052B00090958095709561957F4F8F4F9F4F089582
:1052C0000E94CC29A59F900DB49F900DA49F800DA6
:1052D000911D11240895B7FF0C9460290E94602944
:1052E000821B930B08952F923F924F925F926F9281
:1052F0007F928F929F92AF92BF92CF92DF92EF9266
:10530000FF920F931F93CF93DF93CDB7DEB7CA1BE6
:10531000DB0B0FB6F894DEBF0FBECDBF09942A8811
:10532000398848885F846E847D848C849B84AA84B9
:10533000B984C884DF80EE80FD800C811B81AA8146
:10534000B981CE0FD11D0FB6F894DEBF0FBECDBF11
:10535000ED010895A1E21A2EAA1BBB1BFD010DC091
:10536000AA1FBB1FEE1FFF1FA217B307E407F50715
:1053700020F0A21BB30BE40BF50B661F771F881FF1
:10538000991F1A9469F760957095809590959B0187
:10539000AC01BD01CF010895A29FB001B39FC00130
:1053A000A39F700D811D1124911DB29F700D811D51
:1053B0001124911D0895EE0FFF1F0590F491E02D2B
:1053C00009940F931F93CF93DF938230910510F4CC
:1053D00082E090E0E0914602F091470230E020E068
:1053E000B0E0A0E0309799F42115310509F44AC0E6
:1053F000281B390B24303105D8F58A819B81611532
:10540000710589F1FB0193838283FE0111C0408104
:1054100051810281138148175907E0F04817590755
:1054200099F4109761F012960C93129713961C93AF
:105430003296CF01DF91CF911F910F910895009384
:10544000460210934702F4CF2115310551F042175F
:10545000530738F0A901DB019A01BD01DF01F80112
:10546000C1CFEF01F9CF9093470280934602CDCF91
:10547000FE01E20FF31F819391932250310939838A
:105480002883D7CF2091440230914502232B41F449
:105490002091070130910801309345022093440286
:1054A00020910501309106012115310541F42DB7F8
:1054B0003EB74091090150910A01241B350BE09140
:1054C0004402F0914502E217F307A0F42E1B3F0BB4
:1054D0002817390778F0AC014E5F5F4F2417350766
:1054E00048F04E0F5F1F5093450240934402819352
:1054F00091939FCFF0E0E0E09CCFCF93DF930097B4
:10550000E9F0FC01329713821282A0914602B09119
:105510004702ED0130E020E01097A1F420813181B5
:10552000820F931F209144023091450228173907BA
:1055300009F061C0F0934502E0934402DF91CF91FE
:105540000895EA01CE17DF07E8F54A815B819E01E5
:1055500041155105B1F7E901FB83EA83499159915E
:10556000C40FD51FEC17FD0761F48081918102966D
:10557000840F951FE90199838883828193819B839E
:105580008A83F0E0E0E012968D919C91139700974A
:10559000B9F52D913C911197CD010296820F931F81
:1055A00020914402309145022817390739F6309787
:1055B00051F51092470210924602B0934502A09313
:1055C0004402BCCFD383C28340815181840F951F95
:1055D000C817D90761F44E5F5F4F88819981480FE2
:1055E000591F518340838A819B8193838283211534
:1055F000310509F0B0CFF0934702E09346029ECF09
:10560000FD01DC01C0CF13821282D7CFB0E0A0E051
:10561000ECE0FBE20C9475298C01009751F4CB016E
:105620000E94E1298C01C801CDB7DEB7E0E10C94FE
:105630009129FC01E60FF71F9C0122503109E21766
:10564000F30708F49DC0D901CD91DC911197C617DD
:10565000D70798F0C530D10530F3CE0104978617EF
:10566000970708F3C61BD70B2297C193D1936D936D
:105670007C93CF010E947D2AD6CF5B01AC1ABD0A74
:105680004C018C0E9D1EA0914602B0914702512CF8
:10569000412CF12CE12C109731F58091440290912E
:1056A00045028815990509F05CC04616570608F0B2
:1056B00058C08091050190910601009741F48DB783
:1056C0009EB74091090150910A01841B950BE81780
:1056D000F90708F055C0F0934502E0934402F90140
:1056E00071836083A0CF8D919C91119712966C90DD
:1056F000129713967C901397A815B90559F56C016C
:1057000042E0C40ED11CCA14DB0420F1AC014A19DA
:105710005B09DA011296159780F0628273825183D9
:105720004083D9016D937C93E114F10471F0D701AA
:105730001396FC93EE93129776CF22968C0F9D1FB3
:10574000F90191838083F301EFCFF0934702E09357
:10575000460269CF4816590608F42C017D01D30191
:105760009ACFCB010E94E1297C01009749F0AE015C
:10577000B8010E94C32BC8010E947D2A870153CF24
:1057800010E000E050CFFB01DC0102C001900D925F
:1057900041505040D8F70895DC0101C06D9341504D
:1057A0005040E0F70895FB01DC0101900D920020CC
:1057B000E1F7089512E0C7EFD2E004C0FE010E94B5
:0E57C000DB292196C83FD107C9F7F894FFCF27
:1057CE00010100000000004802800001050A1400DB
:1057DE0000000017047703A4036404D503B303C7C2
:1057EE0003000000006F07950F880787070C1953F9
:0857FE00434F5245203A200000
:00000001FF
